:10000000020A7C7EB300085480BEB0806803020000
:10001000A77EB3000B1BB1682014682F24E1687120
:10002000242168030200A77E3406887E2400FF7A1C
:100030001F00167E34001280687E3406B57E2400D0
:10004000FF7A1F00167E34002980567EB3000A1402
:1000500068191468280BB1784E7E3406847E24001B
:10006000FF7A1F00167E34000480367E3406E27E5E
:100070002400FF7A1F00167E34000880247E340698
:100080006A7E2400FF7A1F00167E34001A801280D8
:10009000167E34069A7E2400FF7A1F00167E3400F6
:1000A0001B7A3700148003020E507E37000EBE37D5
:1000B000001450047A370014020E1400007E348DB0
:1000C0007E7E24005B1B1C78FC22220206EA7CABAD
:1000D000BEA007280374FF227E0B70BE70032803A6
:1000E00074FF224CAA7843A5BF000F29B000017C01
:1000F0006B6E60FF7CB652935294A5BF010C2960D1
:1001000000017CB6429364FF5294A5BF020A2960A5
:1001100000017CB642934294A5BF030E2960000102
:100120007CB664FF52937CB64294BEA0017843A58E
:10013000BF000F29B000017C6B6E60FF7CB652914E
:100140005292A5BF010C296000017CB6429164FF68
:100150005292A5BF020A296000017CB642914292E8
:10016000A5BF030E296000017CB664FF52917CB6E6
:100170004292BEA0027843A5BF000F29B000017CC7
:100180006B6E60FF7CB652955296A5BF010C29603C
:1001900000017CB6429564FF5296A5BF020A296011
:1001A00000017CB642954296A5BF030E296000016E
:1001B0007CB664FF52957CB64296BEA0037843A5F8
:1001C000BF000F29B000017C6B6E60FF7CB652B19E
:1001D00052B2A5BF010C296000017CB642B164FF98
:1001E00052B2A5BF020A296000017CB642B142B2F8
:1001F000A5BF030E296000017CB664FF52B17CB636
:1002000042B2BEA0047843A5BF000F29B000017C14
:100210006B6E60FF7CB652B352B4A5BF010C29606F
:1002200000017CB642B364FF52B4A5BF020A296044
:1002300000017CB642B342B4A5BF030E29600001A1
:100240007CB664FF52B37CB642B4BEA0057843A529
:10025000BF000F29B000017C6B6E60FF7CB652C9F5
:1002600052CAA5BF010C296000017CB642C964FFD7
:1002700052CAA5BF020A296000017CB642C942CA1F
:10028000A5BF030E296000017CB664FF52C97CB68D
:1002900042CABEA0067843A5BF000F29B000017C6A
:1002A0006B6E60FF7CB652CB52CCA5BF010C2960AF
:1002B00000017CB642CB64FF52CCA5BF020A296084
:1002C00000017CB642CB42CCA5BF030E29600001E1
:1002D0007CB664FF52CB7CB642CCBEA0077843A567
:1002E000BF000F29B000017C6B6E60FF7CB652E14D
:1002F00052E2A5BF010C296000017CB642E164FF17
:1003000052E2A5BF020A296000017CB642E142E246
:10031000A5BF030E29A000017CBA64FF52E17CBA9C
:1003200042E2E422CAF87EF300087CBF5480B48025
:10033000167EB3000B70307EB3000A702A7E370041
:100340000EBE34000268030204187CBF540F146808
:100350001B14683B0BB168030204187EB3000D70D8
:10036000067EB3000C601E02041880197EB30012D2
:10037000B4040F7EB3000D60030204187EB3000CBA
:1003800060030204187E3406DE7E2400FF80797E3E
:10039000B30012B404067EB3000D6002807A7E734F
:1003A000000C7CA75EA00F1B7068322E70807868EE
:1003B0007E2400017CBA60053E241478FB7E730025
:1003C0001B6C665C754D33680A7E3406E07E240043
:1003D000FF80357E3406DE7E2400FF802B7E2400E5
:1003E000017CBA60053E241478FB7E73001C6C66A9
:1003F0005C754D33680A7E3406E07E2400FF800879
:100400007E3406DE7E2400FF7A1F00167E34000252
:100410007A37001480078000120E508003120E14E9
:10042000DAF8227EB30012B404247EB30008B402CA
:100430001D7EB3000D60030204B87EB3000B70781C
:100440007EB3000A70727E37000E4D3368028068FA
:100450007E63000C7C765E700F1B60682B2E6080C4
:1004600078567E2400017CB760053E241478FB7C1E
:10047000656E60FF5E63001B7A63001B740E120ED4
:100480000174117E704080247E2400017CB76005D9
:100490003E241478FB7C656E60FF5E63001C7A630B
:1004A000001C740E120E0174147E7080120E017402
:1004B0000E6C77120E018003020E50020E5E7EB3A8
:1004C0000012B404247EB30008B4021D7EB3000DF4
:1004D000600302054D7EB3000B70727EB3000A709C
:1004E0006C7E37000E4D33680280627E63000C7CA8
:1004F000765E700F1B6068282E608078507E240026
:10050000017CB760053E241478FB7C654E63001BBC
:100510007A63001B740E120E0174117E701080211C
:100520007E2400017CB760053E241478FB7C654E78
:1005300063001C7A63001C740E120E0174147E702A
:1005400020120E01740E6C77120E018003020E5001
:10055000020E5E7EB30012BEB00268207EB30008B9
:10056000701A7EB3000B70147EB3000D700E7EB354
:10057000000C70087E37000E4D336803020E507E6B
:10058000B3000AB4014774047AB30012E47AB300EA
:100590001B7AB3001C740E7E7001120E0174127E61
:1005A0007020120E0174107E7008120E01740E7EFF
:1005B0007001120E0174126C77120E0174137E70AA
:1005C00008120E01740E6C77120E01801074037AFB
:1005D000B3001274FF7AB3001B7AB3001C020E5EE4
:1005E000CAF8740E6C77120E017411120DEC7CFBBC
:1005F00030E20F74117C7F5E70FB120E01E47AB35F
:1006000000137CBF30E40A74117C7F4E7080120EA0
:10061000017EB3001324FD68461468480BB2784786
:100620007CBF30E04274207E080008120AF97E3751
:10063000000E120BD87A37000E7EB30008546024E7
:10064000E0680D24E0680E2440780F1208F580174A
:10065000120C0D8012120E77800D120E50800812AF
:1006600007D280031209A5DAF8221A0353005400B6
:100670004300200048004900440020004400650079
:100680006D006F0004030904120100020000004025
:10069000BF3401FF000101020001050C0901A101A5
:1006A000150025FF750895400901B1020901810275
:1006B00009019102C00902290001010080320904E8
:1006C00000000203000000092101010001221B00BB
:1006D0000705810340000A0705010340000A0000E6
:1006E00001000803530054004300CA7BCA6BCA5B75
:1006F000CA4BCA3BCA2BCA1BCA0BC0D1C0D0C083CD
:10070000C0827EF1FC7406120DEC7CEB7402120DBB
:10071000EC7CCB7404120DEC7CDB7CBE30E103126C
:100720000E7A7CBE30E203120B327CBC30E0031246
:1007300005E07CBC30E103120C677CBD30E10312A4
:100740000BA17CBE30E0031200CA7AF1FCD082D04B
:1007500083D0D0D0D1DA0BDA1BDA2BDA3BDA4BDAE2
:100760005BDA6BDA7B3253B2FC43B10374807E34C4
:10077000FE077E24007E7A1BB07E34FE077E2400B6
:100780007E7E1BB030E0F275DC0075F490E46C778F
:10079000120E0174017E7009120E0174077E703F03
:1007A000120E0174097E703F120E01740B7E7007E9
:1007B000120E0174017E7001120E0174027AB300F0
:1007C00012E47AB300137AB3001B7AB3001CA9D7E2
:1007D000AF22CAF8740E6C77120E017411120DEC70
:1007E00020E1537E370014BE34004028057EF040DF
:1007F00080027CF774207E0F00167C7F120C3B0A6F
:100800002F7E3700149D327A3700140A157E1F00A0
:10081000162D317A1F00167E3700144D33780F7471
:10082000117E700A120E01E47AB30013800874116D
:100830007E7002120E01DAF8227CABBEA00F2802F5
:10084000805175BD0075BE00E5BC54F04CBAF5BCD6
:10085000A9D6BC000000000000000000007E70FA75
:10086000A935BC2BA9C5BCA935DE0AE5BD7C6B6CDE
:1008700077E5BE8013E5BD0A4B7D343E343E343E01
:10088000343E34E5BEC4540F0A4B4D437D34221B25
:100890007078CD7E341000227F7029A70001E5DE3C
:1008A00054F04CBAF5DE29B700027005A9C5DE8008
:1008B00003A9D5DE7E7B20BE201F280374FF2229DA
:1008C000A70003BEA001280374FF2229370004BE3D
:1008D0003003280374FF227CB3C42354E07C3B7CA8
:1008E000BA0354804C3B4C327E34FEA87E24007EFA
:1008F0007A1B30E4227EB30009BEB00D50507EA0BA
:1009000003A49009067302092D02093002094E0260
:10091000093302094E02093602093902093C02096B
:100920003F02094202094502094802094B02032419
:100930000204230204BE0209F2020003020E710245
:100940000951020553020ABB020CE6020E74020EA4
:10095000507EB30008B480227EB3000B701C7EB3BF
:10096000000A70167EB3000D70107EB3000C700A82
:100970007E37000EBE3400016803020E507EB300C5
:1009800012B4040A7E3406E07E2400FF80087E3420
:1009900006DE7E2400FF7A1F00167E3400017A37BF
:1009A0000014020E14740E6C77120E017411120DE5
:1009B000EC30E03D74207E0F0016120AF90A1B7E0F
:1009C0002700149D217A2700147E1F00162D317AEE
:1009D0001F00167E3700144D33780E74117E704858
:1009E000120E01E47AB300132274117E7040020EDD
:1009F0000122CAF87EB3000870237EB3000D701D7B
:100A00007EB3000C70177EB3000B70117EF3000AEA
:100A1000BEF08050087E37000E4D336805120E5030
:100A20008017E47C7F120E014CFF6804740380027F
:100A300074027AB30012120E5EDAF822CA3B7F30DB
:100A400074407AB30025740E7E7001120E01741189
:100A5000120DEC20E0F8800A74217E3B700B7412BA
:100A60000E017EA300257CBA147AB300254CAA7827
:100A7000E774117E7001120E01DA3B227584017E4B
:100A800044041FE47A49B01B4478F97EF800267EBE
:100A90000400FF7E140E7B0B0A405D44681A692037
:100AA00000020B0E0B44800A7E0BB07A29B00B2497
:100AB0000B0C1B4478F280DF020D347EB30012B4BD
:100AC000041D7EB30008B481167EB3000B70107E47
:100AD000B3000D700A7E37000EBE340001680302B9
:100AE0000E507E3406DE7E2400FF7A1F00167E3410
:100AF00000017A370014020E14CA3B7F307AB3002B
:100B0000217416120DEC7AB300227AB30023800C04
:100B10007EB30021120DEC7A3BB00B747EA3002251
:100B20007CBA147AB300224CAA78E57EB30023DAAB
:100B30003B22E46C77120E0174027AB30012E47A5D
:100B4000B30013740E7E7001120E0174117E704892
:100B5000120E01740E7E7001120E0174147E7090DC
:100B6000120E01740E6C77020E017E1F001D7E14A2
:100B700000007E040001120D7B702574146C771246
:100B80000E0175F40075DC00E47E34FE077E24005F
:100B90007E7A1BB07E34000A120DAA75C76080FEF3
:100BA00022CAF8740E7E7001120E017414120DEC3C
:100BB0007CFB30E60874147E7080120E017CBF301E
:100BC000E0137E1400007E0400017401120D917484
:100BD000017AB30011DAF8227A3700217E3400223C
:100BE0007E2400007E1B307E3400237E2400007AA9
:100BF0001B307E3400217E2400007E1B307E3400BA
:100C0000247E2400007A1B307E370023227EB3002E
:100C1000091BB1681714681A24FA680D14681014B7
:100C20006813240A7812020C92020CBC020D0E0208
:100C30000D59020E6B020E6E020E50CA3B7A730003
:100C4000227F307AB30021800C7EB300217E3B707E
:100C50000B74120E017EA300227CBA147AB3002218
:100C60004CAA78E5DA3B22CAF8740E7E7001120EA7
:100C7000017411120DEC7CFB30E50874117E70409C
:100C8000120E017CBF30E20774116C77120E01DA8C
:100C9000F8227EB30012B404097EB30008BEB0A1EE
:100CA0006803020E507E3400007E2400017A1F008B
:100CB000167E37000E7A370014020E147EB300122F
:100CC000B404097EB30008BEB0216803020E507E52
:100CD0003400007E2400017A1F00167E37000E7A51
:100CE000370014020E427EB30012B4041B7EB30020
:100CF00008B401147EB3000B700E7EB3000D7008B3
:100D00007E37000E4D336803020E50020E5E7EB336
:100D10000012B404097EB30008BEB0A16803020E3D
:100D2000507E1800267A1F00167E3400017A3700A4
:100D300014020E1475E900A9D7BA75EA0012076605
:100D4000D2AF5395FE5396FE1200BB7EB3001160E6
:100D5000F7120DC2120B6A80EF7EB30012B40409C1
:100D60007EB30008BEB0216803020E507E73000BF4
:100D70007A730026020E5E0B0C0B1C7E0BB0600516
:100D8000BE1BB068F29E1BB0600674FF4002740187
:100D900022CAF80A5B2E540020120AF97CFB741454
:100DA0006C77120E017CBFDAF822CA797D73800756
:100DB0007E342710120E257D371B744D3378F1DAFF
:100DC0007922740E7E7001120E0174146C77120E6B
:100DD00001E47AB30011227CA77C7B0A5A2E5400CE
:100DE00020120C3B74117E7001020E017CABE5FCFD
:100DF00020E7FB7CBA4480F5FCE5FC20E7FBE5EC52
:100E0000227CA77C7BE5FC20E7FB7CB7547FF5FCCC
:100E10007AA1EC2274037AB3001374117E7040122D
:100E20000E010207D28004000000007D231B344D18
:100E30002278F4227C7BA5BF0104A9D7BC22A9C7D4
:100E4000BC2274047AB3001374117E7040020E0148
:100E500074057AB3001374117E7060020E01E47A97
:100E6000B3001374117E7048020E01020E50020E80
:100E700050020E50020E50020E50220004001D00BF
:100E8000FF0E94000100100100010011000001009C
:0D0E90001A00000040535443495350230002
:00000001FF
